:100000000C942A000C9458020C947F020C94A602C3
:100010000C9447000C9447000C9447000C94470044
:100020000C9447000C9447000C9447000C94470034
:100030000C9447000C9447000C9447000C94470024
:100040000C9484040C9447000C9447000C944700D3
:100050000C94470011241FBECFE5D8E0DEBFCDBF12
:1000600010E0A0E6B0E0E6EDFCE002C005900D92E5
:10007000AA3FB107D9F711E0AAEFB0E001C01D9285
:10008000A230B107E1F70E94B5040C9469060C9404
:100090000000FF920F931F93F82E82E060E041E092
:1000A0000E94700382E061E040E00E94700300ED76
:1000B00017E0C8010197F1F781E06F2D0E94E3037B
:1000C000C8010197F1F782E062E041E00E9470030D
:1000D000C8010197F1F782E062E040E00E947003FE
:1000E000C8010197F1F71F910F91FF900895CF92EA
:1000F000DF92FF920F931F93DF93CF93CDB7DEB7BD
:100100002A970FB6F894DEBF0FBECDBF8C010097C3
:1001100021F480E30E94490008C097FF06C08DE2E9
:100120000E944900109501951F4FFE0131968AE00B
:10013000DF011D928A95E9F740E06F0110C0F601DA
:10014000E40FF11DC8016AE070E00E94420680835E
:10015000C8016AE070E00E9442068B014F5F011502
:10016000110569F7F42EFA940F2D112707FD10954C
:100170000C0D1D1D08C0F8018081805D0E944900A2
:10018000FA9401501040F7FEF6CF2A960FB6F89475
:10019000DEBF0FBECDBFCF91DF911F910F91FF90BA
:1001A000DF90CF9008951F93CF93DF93EC0110E081
:1001B00003C00E9449001F5FFE01E10FF11D808115
:1001C0008823B9F7DF91CF911F910895FF920F9384
:1001D0001F93F82E82E060E040E00E94700382E00E
:1001E00061E040E00E94700300ED17E0C801019754
:1001F000F1F781E06F2D0E94E303C8010197F1F749
:1002000082E062E041E00E947003C8010197F1F7CB
:1002100082E062E040E00E947003C8010197F1F7BC
:100220001F910F91FF900895882319F4862F80580D
:1002300002C0862F80540E94E60008950F931F93FA
:10024000CF93DF938B01880F880F880F805C0E940B
:10025000E600C0E0D0E0F801EC0FFD1F80810E94B5
:1002600049002196C830D105B1F780E80E94E60028
:10027000DF91CF911F910F9108950F931F9382E00B
:1002800060E041E00E94EC0282E061E041E00E9417
:10029000EC0282E062E041E00E94EC0281E06FEF5C
:1002A0000E945F0384EF91E028EC30E0F901319780
:1002B000F1F70197D9F788E30E94E60000ED17E017
:1002C000C8010197F1F78CE00E94E600C801019790
:1002D000F1F781E00E94E60080E797E10197F1F7EE
:1002E00086E00E94E6001F910F91089583E06FEF72
:1002F0000E94E30383E061E040E00E94700383E03A
:1003000067E00E94F40390E0882309F491E0892FCC
:10031000089583E06FEF0E94E30383E063E040E031
:100320000E94700383E066E00E94F40390E088235B
:1003300009F491E0892F089583E06FEF0E94E303B1
:1003400083E062E040E00E94700383E067E00E9487
:10035000F40390E0882309F491E0892F08951F9316
:1003600083E06FEF0E94E30383E063E040E00E94DC
:10037000700310E01C5F83E0612F0E94F403612F83
:100380006350882311F4862F04C0162F643091F730
:1003900080E01F9108951F9310E083E06FEF0E94AB
:1003A000E30383E0612F40E00E94700383E064E098
:1003B0000E94F403882311F490E00FC083E065E00D
:1003C0000E94F403882311F491E007C083E066E003
:1003D0000E94F403882349F492E0612F6F5F83E069
:1003E000989FC0011124680F15C01F5F1330A9F634
:1003F00083E06FEF0E94E30383E060E040E00E944F
:10040000700383E067E00E94F403882311F06AE739
:1004100001C060E0862F1F91089583E06FE00E9485
:100420005F0383E06FEF0E94E30308958FB7806856
:100430008FBF08958FB78F778FBF0895863029F0CB
:10044000873031F0853059F407C08BB7806402C023
:100450008BB780688BBF08958BB780628BBF089580
:10046000863029F0873031F0853059F407C08BB7DA
:100470008F7B02C08BB78F778BBF08958BB78F7D33
:100480008BBF0895813051F0813018F0823079F4BB
:100490000AC0709301016093000108957093FD00FC
:1004A0006093FC0008957093FF006093FE00089530
:1004B0001F920F920FB60F9211242F933F934F93D9
:1004C0005F936F937F938F939F93AF93BF93EF93BC
:1004D000FF93E0910001F09101010995FF91EF91E7
:1004E000BF91AF919F918F917F916F915F914F914C
:1004F0003F912F910F900FBE0F901F9018951F9254
:100500000F920FB60F9211242F933F934F935F9347
:100510006F937F938F939F93AF93BF93EF93FF93CB
:10052000E091FC00F091FD000995FF91EF91BF91E2
:10053000AF919F918F917F916F915F914F913F917B
:100540002F910F900FBE0F901F9018951F920F9232
:100550000FB60F9211242F933F934F935F936F9396
:100560007F938F939F93AF93BF93EF93FF93E0910C
:10057000FE00F091FF000995FF91EF91BF91AF91BF
:100580009F918F917F916F915F914F913F912F91AB
:100590000F900FBE0F901F90189585B78E7F85BF67
:1005A00085B7826085BF83E062E040E00E94EC0294
:1005B00085B78B7F85BF85B7886085BF83E063E0A3
:1005C00040E00E94EC0284B78F7B84BF81E062E050
:1005D00040E00E94EC0208954130B1F5813099F07D
:1005E000813030F08230D1F0833009F067C021C013
:1005F0002AB381E090E002C0880F991F6A95E2F764
:10060000282B2ABB089527B381E090E002C0880F11
:10061000991F6A95E2F7282B27BB089524B381E040
:1006200090E002C0880F991F6A95E2F7282B24BB3F
:10063000089521B381E090E002C0880F991F6A9568
:10064000E2F7282B21BB08954423C1F5813099F0AE
:10065000813028F08230D9F0833081F524C02AB36C
:1006600081E090E002C0880F991F6A95E2F78095BB
:1006700082238ABB089527B381E090E002C0880FEF
:10068000991F6A95E2F78095822387BB089524B36A
:1006900081E090E002C0880F991F6A95E2F780958B
:1006A000822384BB089521B381E090E002C0880FCB
:1006B000991F6A95E2F78095822381BB0895813066
:1006C00049F0813028F0823039F0833041F406C09F
:1006D0006ABB089567BB089564BB089561BB089524
:1006E0004130B1F5813099F0813030F08230D1F075
:1006F000833009F067C021C02BB381E090E002C0D5
:10070000880F991F6A95E2F7282B2BBB089528B311
:1007100081E090E002C0880F991F6A95E2F7282BCC
:1007200028BB089525B381E090E002C0880F991F8F
:100730006A95E2F7282B25BB089522B381E090E06B
:1007400002C0880F991F6A95E2F7282B22BB0895F3
:100750004423C1F5813099F0813028F08230D9F0FE
:10076000833081F524C02BB381E090E002C0880F74
:10077000991F6A95E2F7809582238BBB089528B371
:1007800081E090E002C0880F991F6A95E2F780959A
:10079000822388BB089525B381E090E002C0880FD2
:1007A000991F6A95E2F78095822385BB089522B34D
:1007B00081E090E002C0880F991F6A95E2F780956A
:1007C000822382BB0895813049F0813028F0823045
:1007D00039F0833041F406C06BBB089568BB0895BF
:1007E00065BB089562BB0895813051F0813030F0CF
:1007F000823041F0833079F080E0089589B303C0FE
:1008000086B301C083B390E002C0959587956A9541
:10081000E2F78170089580B390E002C095958795C6
:100820006A95E2F781700895813051F0813030F09F
:10083000823041F0833041F080E0089589B308951B
:1008400086B3089583B3089580B30895813091F0FD
:10085000813028F08230C9F0833061F521C02BB39C
:1008600081E090E002C0880F991F6A95E2F728277F
:100870002BBB089528B381E090E002C0880F991F38
:100880006A95E2F7282728BB089525B381E090E018
:1008900002C0880F991F6A95E2F7282725BB0895A3
:1008A00022B381E090E002C0880F991F6A95E2F7B9
:1008B000282722BB08953E9A3D983598339886B1F3
:1008C000887F86B986B1866086B9379A0895982F51
:1008D00087B1807E87B987B1892B87B9983018F4A2
:1008E00087B1892B87B9369A349BFECF349A94B15D
:1008F00085B1382F20E0290F311DC901089590934B
:10090000FB008093FA0008951F920F920FB60F928A
:1009100011242F933F934F935F936F937F938F9304
:100920009F93AF93BF93EF93FF93E091FA00F09101
:10093000FB00309709F00995FF91EF91BF91AF91BE
:100940009F918F917F916F915F914F913F912F91E7
:100950000F900FBE0F901F901895379A08953798F3
:100960000895339A089533980895EF92FF920F9364
:100970001F93CF93DF9380E067E041E00E94EC0299
:1009800080E066E041E00E94EC020E943D010E948E
:100990000D020E945B0480E690E00E94D30080E29A
:1009A0009EE428EC30E0F9013197F1F70197D9F78F
:1009B00081E00E94E60088E690E00E94D30081E09A
:1009C00060E00E94140185E790E00E94D3000E943D
:1009D000CB018A37E1F381E00E94E600FF242AE0A0
:1009E000E22EC8ECD0E039C00E94CB018A37E1F397
:1009F0000E9D002D11240E94CB01080F8AE20E9457
:100A0000490088E893E1FE013197F1F70197D9F7A2
:100A10001F5F133049F70B3721F481E00E94E60095
:100A20001FC081E00E94E60088E893E1FE01319753
:100A3000F1F70197D9F7F39483E0F81689F080E88D
:100A400090E00E94D30080E29EE4FE013197F1F72E
:100A50000197D9F781E00E94E60010E000E0C4CFE2
:100A6000C8ECD0E083E0F81651F481E00E94E60083
:100A70008DE890E00E94D30094E0F92EF3CF82E05D
:100A80008F1508F0F9C0EECF85E0F81659F381E034
:100A90000E94E6008CE990E00E94D30082EA90E098
:100AA0000E94D30081E060E00E9414018EEA90E091
:100AB0000E94D30088EB90E00E94D3000E94CB01FB
:100AC0008A3781F40E94CB01813061F00E94CB0112
:100AD000823041F00E94CB01833021F00E94CB0193
:100AE000843061F70E94CB01823009F452C0833018
:100AF00020F4813009F0C0C007C0833009F477C00A
:100B0000843009F0B9C0B3C081E00E94E6008FEBE9
:100B100090E00E94D30087EC90E00E94D30081E037
:100B200060E00E9414018EEC90E00E94D30080ED02
:100B300097E0FE013197F1F70197D9F725C00E94A0
:100B4000CB018A37E1F30E94CB01813069F480E068
:100B500067E041E00E94700388EE93E0FE01319768
:100B6000F1F70197D9F710C00E94CB01823061F4F0
:100B700080E067E040E00E94700388EE93E0FE01B1
:100B80003197F1F70197D9F70E94CB018430B9F67C
:100B900073C081E00E94E60081E060E00E941401E1
:100BA00088ED90E00E94D30080E060E00E94140194
:100BB00085EE90E00E94D30015C080E069E00E94BD
:100BC000140180E00E9467046AE070E00E9442061F
:100BD000CB010E94770080ED97E0FE013197F1F79D
:100BE0000197D9F70E94CB01843039F745C081E0E5
:100BF0000E94E60081E060E00E94140188ED90E030
:100C00000E94D30080E060E00E9414018FEE90E02B
:100C10000E94D30022C080E069E00E94140181E0BC
:100C20000E9467048C016AE070E00E944206CB01DA
:100C30000E947700045F114024F480E066E041E008
:100C400003C080E066E040E00E94700380ED97E022
:100C5000FE013197F1F70197D9F70E94CB0184305B
:100C6000D1F680E066E040E00E94700305C081E0BC
:100C70000E94E60085E0F82E0E94CB01843009F046
:100C800003CFF0CE97FB092E07260AD077FD04D0BC
:100C90000CD006D000201AF4709561957F4F08950E
:100CA000F6F7909581959F4F0895AA1BBB1B51E1C4
:100CB00007C0AA1FBB1FA617B70710F0A61BB70BCC
:100CC000881F991F5A95A9F780959095BC01CD0171
:060CD0000895F894FFCF27
:100CD60057454C434F4D4500456E74657220796FFC
:100CE600757220200020706173776F726465200032
:100CF6005472617920616761696E2020004E6F2011
:100D06006D6F72652074726965732000312D66619E
:100D16006E0020202020322D74656D702000332D4A
:100D26006C69676874202000342D6261636B003142
:100D36002D4F4E20202000322D4F464620002020E9
:100D4600342D6261636B2000342D20666F72206241
:100D560061636B20002020202074656D703A0020AE
:0A0D660020206C696768743A2000D1
:00000001FF
